{
  "_format": "hh-sol-artifact-1",
  "contractName": "NFTezz",
  "sourceName": "contracts/NFTezz.sol",
  "abi": [
    {
      "inputs": [],
      "stateMutability": "nonpayable",
      "type": "constructor"
    },
    {
      "anonymous": false,
      "inputs": [
        {
          "indexed": true,
          "internalType": "address",
          "name": "owner",
          "type": "address"
        },
        {
          "indexed": true,
          "internalType": "address",
          "name": "approved",
          "type": "address"
        },
        {
          "indexed": true,
          "internalType": "uint256",
          "name": "tokenId",
          "type": "uint256"
        }
      ],
      "name": "Approval",
      "type": "event"
    },
    {
      "anonymous": false,
      "inputs": [
        {
          "indexed": true,
          "internalType": "address",
          "name": "owner",
          "type": "address"
        },
        {
          "indexed": true,
          "internalType": "address",
          "name": "operator",
          "type": "address"
        },
        {
          "indexed": false,
          "internalType": "bool",
          "name": "approved",
          "type": "bool"
        }
      ],
      "name": "ApprovalForAll",
      "type": "event"
    },
    {
      "anonymous": false,
      "inputs": [
        {
          "indexed": true,
          "internalType": "uint256",
          "name": "tokenId",
          "type": "uint256"
        },
        {
          "indexed": false,
          "internalType": "address",
          "name": "seller",
          "type": "address"
        },
        {
          "indexed": false,
          "internalType": "address",
          "name": "owner",
          "type": "address"
        },
        {
          "indexed": false,
          "internalType": "uint256",
          "name": "price",
          "type": "uint256"
        },
        {
          "indexed": false,
          "internalType": "bool",
          "name": "bought",
          "type": "bool"
        }
      ],
      "name": "MarketItemCreated",
      "type": "event"
    },
    {
      "anonymous": false,
      "inputs": [
        {
          "indexed": true,
          "internalType": "address",
          "name": "from",
          "type": "address"
        },
        {
          "indexed": true,
          "internalType": "address",
          "name": "to",
          "type": "address"
        },
        {
          "indexed": true,
          "internalType": "uint256",
          "name": "tokenId",
          "type": "uint256"
        }
      ],
      "name": "Transfer",
      "type": "event"
    },
    {
      "inputs": [
        {
          "internalType": "address",
          "name": "to",
          "type": "address"
        },
        {
          "internalType": "uint256",
          "name": "tokenId",
          "type": "uint256"
        }
      ],
      "name": "approve",
      "outputs": [],
      "stateMutability": "nonpayable",
      "type": "function"
    },
    {
      "inputs": [
        {
          "internalType": "address",
          "name": "owner",
          "type": "address"
        }
      ],
      "name": "balanceOf",
      "outputs": [
        {
          "internalType": "uint256",
          "name": "",
          "type": "uint256"
        }
      ],
      "stateMutability": "view",
      "type": "function"
    },
    {
      "inputs": [
        {
          "internalType": "uint256",
          "name": "tokenId",
          "type": "uint256"
        }
      ],
      "name": "createMarketSale",
      "outputs": [],
      "stateMutability": "payable",
      "type": "function"
    },
    {
      "inputs": [
        {
          "internalType": "string",
          "name": "tokenURI",
          "type": "string"
        },
        {
          "internalType": "uint256",
          "name": "price",
          "type": "uint256"
        }
      ],
      "name": "createToken",
      "outputs": [
        {
          "internalType": "uint256",
          "name": "",
          "type": "uint256"
        }
      ],
      "stateMutability": "payable",
      "type": "function"
    },
    {
      "inputs": [],
      "name": "fetchItemsListed",
      "outputs": [
        {
          "components": [
            {
              "internalType": "uint256",
              "name": "tokenId",
              "type": "uint256"
            },
            {
              "internalType": "address payable",
              "name": "seller",
              "type": "address"
            },
            {
              "internalType": "address payable",
              "name": "owner",
              "type": "address"
            },
            {
              "internalType": "uint256",
              "name": "price",
              "type": "uint256"
            },
            {
              "internalType": "bool",
              "name": "bought",
              "type": "bool"
            }
          ],
          "internalType": "struct NFTezz.MarketItem[]",
          "name": "",
          "type": "tuple[]"
        }
      ],
      "stateMutability": "view",
      "type": "function"
    },
    {
      "inputs": [],
      "name": "fetchMarketItems",
      "outputs": [
        {
          "components": [
            {
              "internalType": "uint256",
              "name": "tokenId",
              "type": "uint256"
            },
            {
              "internalType": "address payable",
              "name": "seller",
              "type": "address"
            },
            {
              "internalType": "address payable",
              "name": "owner",
              "type": "address"
            },
            {
              "internalType": "uint256",
              "name": "price",
              "type": "uint256"
            },
            {
              "internalType": "bool",
              "name": "bought",
              "type": "bool"
            }
          ],
          "internalType": "struct NFTezz.MarketItem[]",
          "name": "",
          "type": "tuple[]"
        }
      ],
      "stateMutability": "view",
      "type": "function"
    },
    {
      "inputs": [],
      "name": "fetchMyNFTs",
      "outputs": [
        {
          "components": [
            {
              "internalType": "uint256",
              "name": "tokenId",
              "type": "uint256"
            },
            {
              "internalType": "address payable",
              "name": "seller",
              "type": "address"
            },
            {
              "internalType": "address payable",
              "name": "owner",
              "type": "address"
            },
            {
              "internalType": "uint256",
              "name": "price",
              "type": "uint256"
            },
            {
              "internalType": "bool",
              "name": "bought",
              "type": "bool"
            }
          ],
          "internalType": "struct NFTezz.MarketItem[]",
          "name": "",
          "type": "tuple[]"
        }
      ],
      "stateMutability": "view",
      "type": "function"
    },
    {
      "inputs": [
        {
          "internalType": "uint256",
          "name": "tokenId",
          "type": "uint256"
        }
      ],
      "name": "getApproved",
      "outputs": [
        {
          "internalType": "address",
          "name": "",
          "type": "address"
        }
      ],
      "stateMutability": "view",
      "type": "function"
    },
    {
      "inputs": [
        {
          "internalType": "address",
          "name": "owner",
          "type": "address"
        },
        {
          "internalType": "address",
          "name": "operator",
          "type": "address"
        }
      ],
      "name": "isApprovedForAll",
      "outputs": [
        {
          "internalType": "bool",
          "name": "",
          "type": "bool"
        }
      ],
      "stateMutability": "view",
      "type": "function"
    },
    {
      "inputs": [],
      "name": "name",
      "outputs": [
        {
          "internalType": "string",
          "name": "",
          "type": "string"
        }
      ],
      "stateMutability": "view",
      "type": "function"
    },
    {
      "inputs": [
        {
          "internalType": "uint256",
          "name": "tokenId",
          "type": "uint256"
        }
      ],
      "name": "ownerOf",
      "outputs": [
        {
          "internalType": "address",
          "name": "",
          "type": "address"
        }
      ],
      "stateMutability": "view",
      "type": "function"
    },
    {
      "inputs": [
        {
          "internalType": "address",
          "name": "from",
          "type": "address"
        },
        {
          "internalType": "address",
          "name": "to",
          "type": "address"
        },
        {
          "internalType": "uint256",
          "name": "tokenId",
          "type": "uint256"
        }
      ],
      "name": "safeTransferFrom",
      "outputs": [],
      "stateMutability": "nonpayable",
      "type": "function"
    },
    {
      "inputs": [
        {
          "internalType": "address",
          "name": "from",
          "type": "address"
        },
        {
          "internalType": "address",
          "name": "to",
          "type": "address"
        },
        {
          "internalType": "uint256",
          "name": "tokenId",
          "type": "uint256"
        },
        {
          "internalType": "bytes",
          "name": "data",
          "type": "bytes"
        }
      ],
      "name": "safeTransferFrom",
      "outputs": [],
      "stateMutability": "nonpayable",
      "type": "function"
    },
    {
      "inputs": [
        {
          "internalType": "address",
          "name": "operator",
          "type": "address"
        },
        {
          "internalType": "bool",
          "name": "approved",
          "type": "bool"
        }
      ],
      "name": "setApprovalForAll",
      "outputs": [],
      "stateMutability": "nonpayable",
      "type": "function"
    },
    {
      "inputs": [
        {
          "internalType": "bytes4",
          "name": "interfaceId",
          "type": "bytes4"
        }
      ],
      "name": "supportsInterface",
      "outputs": [
        {
          "internalType": "bool",
          "name": "",
          "type": "bool"
        }
      ],
      "stateMutability": "view",
      "type": "function"
    },
    {
      "inputs": [],
      "name": "symbol",
      "outputs": [
        {
          "internalType": "string",
          "name": "",
          "type": "string"
        }
      ],
      "stateMutability": "view",
      "type": "function"
    },
    {
      "inputs": [
        {
          "internalType": "uint256",
          "name": "tokenId",
          "type": "uint256"
        }
      ],
      "name": "tokenURI",
      "outputs": [
        {
          "internalType": "string",
          "name": "",
          "type": "string"
        }
      ],
      "stateMutability": "view",
      "type": "function"
    },
    {
      "inputs": [
        {
          "internalType": "address",
          "name": "from",
          "type": "address"
        },
        {
          "internalType": "address",
          "name": "to",
          "type": "address"
        },
        {
          "internalType": "uint256",
          "name": "tokenId",
          "type": "uint256"
        }
      ],
      "name": "transferFrom",
      "outputs": [],
      "stateMutability": "nonpayable",
      "type": "function"
    }
  ],
  "bytecode": "0x60806040523480156200001157600080fd5b506040518060400160405280600681526020016527232a22bd3d60d11b8152506040518060400160405280600681526020016527232a32bd3d60d11b81525081600090805190602001906200006892919062000099565b5080516200007e90600190602084019062000099565b5050600980546001600160a01b03191633179055506200017c565b828054620000a7906200013f565b90600052602060002090601f016020900481019282620000cb576000855562000116565b82601f10620000e657805160ff191683800117855562000116565b8280016001018555821562000116579182015b8281111562000116578251825591602001919060010190620000f9565b506200012492915062000128565b5090565b5b8082111562000124576000815560010162000129565b600181811c908216806200015457607f821691505b602082108114156200017657634e487b7160e01b600052602260045260246000fd5b50919050565b611e9c806200018c6000396000f3fe6080604052600436106101095760003560e01c80636352211e11610095578063a22cb46511610064578063a22cb465146102c1578063b88d4fde146102e1578063be9af53614610301578063c87b56dd14610314578063e985e9c51461033457600080fd5b80636352211e1461024b57806370a082311461026b57806372b3b6201461029957806395d89b41146102ac57600080fd5b80630f08efe0116100dc5780630f08efe0146101bf578063202e3740146101e157806323b872dd146101f657806342842e0e1461021657806345f8fa801461023657600080fd5b806301ffc9a71461010e57806306fdde0314610143578063081812fc14610165578063095ea7b31461019d575b600080fd5b34801561011a57600080fd5b5061012e6101293660046118c4565b61037d565b60405190151581526020015b60405180910390f35b34801561014f57600080fd5b506101586103cf565b60405161013a9190611939565b34801561017157600080fd5b5061018561018036600461194c565b610461565b6040516001600160a01b03909116815260200161013a565b3480156101a957600080fd5b506101bd6101b8366004611981565b610488565b005b3480156101cb57600080fd5b506101d46105a3565b60405161013a91906119ab565b3480156101ed57600080fd5b506101d461073b565b34801561020257600080fd5b506101bd610211366004611a27565b610911565b34801561022257600080fd5b506101bd610231366004611a27565b610942565b34801561024257600080fd5b506101d461095d565b34801561025757600080fd5b5061018561026636600461194c565b610b33565b34801561027757600080fd5b5061028b610286366004611a63565b610b93565b60405190815260200161013a565b61028b6102a7366004611b0a565b610c19565b3480156102b857600080fd5b50610158610c5b565b3480156102cd57600080fd5b506101bd6102dc366004611b63565b610c6a565b3480156102ed57600080fd5b506101bd6102fc366004611b9f565b610c79565b6101bd61030f36600461194c565b610cb1565b34801561032057600080fd5b5061015861032f36600461194c565b610dd9565b34801561034057600080fd5b5061012e61034f366004611c1b565b6001600160a01b03918216600090815260056020908152604080832093909416825291909152205460ff1690565b60006001600160e01b031982166380ac58cd60e01b14806103ae57506001600160e01b03198216635b5e139f60e01b145b806103c957506301ffc9a760e01b6001600160e01b03198316145b92915050565b6060600080546103de90611c4e565b80601f016020809104026020016040519081016040528092919081815260200182805461040a90611c4e565b80156104575780601f1061042c57610100808354040283529160200191610457565b820191906000526020600020905b81548152906001019060200180831161043a57829003601f168201915b5050505050905090565b600061046c82610eea565b506000908152600460205260409020546001600160a01b031690565b600061049382610b33565b9050806001600160a01b0316836001600160a01b031614156105065760405162461bcd60e51b815260206004820152602160248201527f4552433732313a20617070726f76616c20746f2063757272656e74206f776e656044820152603960f91b60648201526084015b60405180910390fd5b336001600160a01b03821614806105225750610522813361034f565b6105945760405162461bcd60e51b815260206004820152603e60248201527f4552433732313a20617070726f76652063616c6c6572206973206e6f7420746f60448201527f6b656e206f776e6572206e6f7220617070726f76656420666f7220616c6c000060648201526084016104fd565b61059e8383610f4c565b505050565b606060006105b060075490565b905060006105bd60085490565b6007546105ca9190611c9f565b90506000808267ffffffffffffffff8111156105e8576105e8611a7e565b60405190808252806020026020018201604052801561064157816020015b6040805160a0810182526000808252602080830182905292820181905260608201819052608082015282526000199092019101816106065790505b50905060005b848110156107325730600a600061065f846001611cb6565b81526020810191909152604001600020600201546001600160a01b0316141561072057600061068f826001611cb6565b6000818152600a6020908152604091829020825160a0810184528154815260018201546001600160a01b039081169382019390935260028201549092169282019290925260038201546060820152600482015460ff16151560808201528551929350909185908790811061070557610705611cce565b602090810291909101015261071b600186611cb6565b945050505b8061072a81611ce4565b915050610647565b50949350505050565b6060600061074860075490565b905060008060005b838110156107ab5733600a6000610768846001611cb6565b81526020810191909152604001600020600201546001600160a01b0316141561079957610796600184611cb6565b92505b806107a381611ce4565b915050610750565b5060008267ffffffffffffffff8111156107c7576107c7611a7e565b60405190808252806020026020018201604052801561082057816020015b6040805160a0810182526000808252602080830182905292820181905260608201819052608082015282526000199092019101816107e55790505b50905060005b848110156107325733600a600061083e846001611cb6565b81526020810191909152604001600020600201546001600160a01b031614156108ff57600061086e826001611cb6565b6000818152600a6020908152604091829020825160a0810184528154815260018201546001600160a01b039081169382019390935260028201549092169282019290925260038201546060820152600482015460ff1615156080820152855192935090918590879081106108e4576108e4611cce565b60209081029190910101526108fa600186611cb6565b945050505b8061090981611ce4565b915050610826565b61091b3382610fba565b6109375760405162461bcd60e51b81526004016104fd90611cff565b61059e838383611038565b61059e83838360405180602001604052806000815250610c79565b6060600061096a60075490565b905060008060005b838110156109cd5733600a600061098a846001611cb6565b81526020810191909152604001600020600101546001600160a01b031614156109bb576109b8600184611cb6565b92505b806109c581611ce4565b915050610972565b5060008267ffffffffffffffff8111156109e9576109e9611a7e565b604051908082528060200260200182016040528015610a4257816020015b6040805160a081018252600080825260208083018290529282018190526060820181905260808201528252600019909201910181610a075790505b50905060005b848110156107325733600a6000610a60846001611cb6565b81526020810191909152604001600020600101546001600160a01b03161415610b21576000610a90826001611cb6565b6000818152600a6020908152604091829020825160a0810184528154815260018201546001600160a01b039081169382019390935260028201549092169282019290925260038201546060820152600482015460ff161515608082015285519293509091859087908110610b0657610b06611cce565b6020908102919091010152610b1c600186611cb6565b945050505b80610b2b81611ce4565b915050610a48565b6000818152600260205260408120546001600160a01b0316806103c95760405162461bcd60e51b8152602060048201526018602482015277115490cdcc8c4e881a5b9d985b1a59081d1bdad95b88125160421b60448201526064016104fd565b60006001600160a01b038216610bfd5760405162461bcd60e51b815260206004820152602960248201527f4552433732313a2061646472657373207a65726f206973206e6f7420612076616044820152683634b21037bbb732b960b91b60648201526084016104fd565b506001600160a01b031660009081526003602052604090205490565b6000610c29600780546001019055565b6000610c3460075490565b9050610c4033826111d4565b610c4a8185611316565b610c5481846113b0565b9392505050565b6060600180546103de90611c4e565b610c75338383611495565b5050565b610c833383610fba565b610c9f5760405162461bcd60e51b81526004016104fd90611cff565b610cab84848484611564565b50505050565b6000818152600a6020526040902060038101546001909101546001600160a01b0316348214610d4a576040805162461bcd60e51b81526020600482015260248101919091527f506c65617365207375626d6974207468652061736b696e67207072696365206960448201527f6e206f7264657220746f20636f6d706c6574652074686520707572636861736560648201526084016104fd565b6000838152600a602052604090206002810180546001600160a01b0319908116331790915560048201805460ff1916600190811790915590910180549091169055610d99600880546001019055565b610da4303385611038565b6040516001600160a01b038216903480156108fc02916000818181858888f19350505050158015610cab573d6000803e3d6000fd5b6060610de482610eea565b60008281526006602052604081208054610dfd90611c4e565b80601f0160208091040260200160405190810160405280929190818152602001828054610e2990611c4e565b8015610e765780601f10610e4b57610100808354040283529160200191610e76565b820191906000526020600020905b815481529060010190602001808311610e5957829003601f168201915b505050505090506000610e9460408051602081019091526000815290565b9050805160001415610ea7575092915050565b815115610ed9578082604051602001610ec1929190611d4d565b60405160208183030381529060405292505050919050565b610ee284611597565b949350505050565b6000818152600260205260409020546001600160a01b0316610f495760405162461bcd60e51b8152602060048201526018602482015277115490cdcc8c4e881a5b9d985b1a59081d1bdad95b88125160421b60448201526064016104fd565b50565b600081815260046020526040902080546001600160a01b0319166001600160a01b0384169081179091558190610f8182610b33565b6001600160a01b03167f8c5be1e5ebec7d5bd14f71427d1e84f3dd0314c0f7b2291e5b200ac8c7c3b92560405160405180910390a45050565b600080610fc683610b33565b9050806001600160a01b0316846001600160a01b0316148061100d57506001600160a01b0380821660009081526005602090815260408083209388168352929052205460ff165b80610ee25750836001600160a01b031661102684610461565b6001600160a01b031614949350505050565b826001600160a01b031661104b82610b33565b6001600160a01b0316146110af5760405162461bcd60e51b815260206004820152602560248201527f4552433732313a207472616e736665722066726f6d20696e636f72726563742060448201526437bbb732b960d91b60648201526084016104fd565b6001600160a01b0382166111115760405162461bcd60e51b8152602060048201526024808201527f4552433732313a207472616e7366657220746f20746865207a65726f206164646044820152637265737360e01b60648201526084016104fd565b61111c600082610f4c565b6001600160a01b0383166000908152600360205260408120805460019290611145908490611c9f565b90915550506001600160a01b0382166000908152600360205260408120805460019290611173908490611cb6565b909155505060008181526002602052604080822080546001600160a01b0319166001600160a01b0386811691821790925591518493918716917fddf252ad1be2c89b69c2b068fc378daa952ba7f163c4a11628f55a4df523b3ef91a4505050565b6001600160a01b03821661122a5760405162461bcd60e51b815260206004820181905260248201527f4552433732313a206d696e7420746f20746865207a65726f206164647265737360448201526064016104fd565b6000818152600260205260409020546001600160a01b03161561128f5760405162461bcd60e51b815260206004820152601c60248201527f4552433732313a20746f6b656e20616c7265616479206d696e7465640000000060448201526064016104fd565b6001600160a01b03821660009081526003602052604081208054600192906112b8908490611cb6565b909155505060008181526002602052604080822080546001600160a01b0319166001600160a01b03861690811790915590518392907fddf252ad1be2c89b69c2b068fc378daa952ba7f163c4a11628f55a4df523b3ef908290a45050565b6000828152600260205260409020546001600160a01b03166113915760405162461bcd60e51b815260206004820152602e60248201527f45524337323155524953746f726167653a2055524920736574206f66206e6f6e60448201526d32bc34b9ba32b73a103a37b5b2b760911b60648201526084016104fd565b6000828152600660209081526040909120825161059e92840190611815565b6040805160a08101825283815233602080830182815230848601818152606086018881526000608088018181528b8252600a909652979097209551865591516001860180546001600160a01b03199081166001600160a01b0393841617909155925160028701805490941691161790915593516003840155516004909201805460ff1916921515929092179091556114489184611038565b604080513381523060208201529081018290526000606082015282907fb640004f1d14576d0c209e240cad0410e0d8c0c33a09375861fbadae2588a98d9060800160405180910390a25050565b816001600160a01b0316836001600160a01b031614156114f75760405162461bcd60e51b815260206004820152601960248201527f4552433732313a20617070726f766520746f2063616c6c65720000000000000060448201526064016104fd565b6001600160a01b03838116600081815260056020908152604080832094871680845294825291829020805460ff191686151590811790915591519182527f17307eab39ab6107e8899845ad3d59bd9653f200f220920489ca2b5937696c31910160405180910390a3505050565b61156f848484611038565b61157b8484848461160a565b610cab5760405162461bcd60e51b81526004016104fd90611d7c565b60606115a282610eea565b60006115b960408051602081019091526000815290565b905060008151116115d95760405180602001604052806000815250610c54565b806115e384611717565b6040516020016115f4929190611d4d565b6040516020818303038152906040529392505050565b60006001600160a01b0384163b1561170c57604051630a85bd0160e11b81526001600160a01b0385169063150b7a029061164e903390899088908890600401611dce565b602060405180830381600087803b15801561166857600080fd5b505af1925050508015611698575060408051601f3d908101601f1916820190925261169591810190611e0b565b60015b6116f2573d8080156116c6576040519150601f19603f3d011682016040523d82523d6000602084013e6116cb565b606091505b5080516116ea5760405162461bcd60e51b81526004016104fd90611d7c565b805181602001fd5b6001600160e01b031916630a85bd0160e11b149050610ee2565b506001949350505050565b60608161173b5750506040805180820190915260018152600360fc1b602082015290565b8160005b8115611765578061174f81611ce4565b915061175e9050600a83611e3e565b915061173f565b60008167ffffffffffffffff81111561178057611780611a7e565b6040519080825280601f01601f1916602001820160405280156117aa576020820181803683370190505b5090505b8415610ee2576117bf600183611c9f565b91506117cc600a86611e52565b6117d7906030611cb6565b60f81b8183815181106117ec576117ec611cce565b60200101906001600160f81b031916908160001a90535061180e600a86611e3e565b94506117ae565b82805461182190611c4e565b90600052602060002090601f0160209004810192826118435760008555611889565b82601f1061185c57805160ff1916838001178555611889565b82800160010185558215611889579182015b8281111561188957825182559160200191906001019061186e565b50611895929150611899565b5090565b5b80821115611895576000815560010161189a565b6001600160e01b031981168114610f4957600080fd5b6000602082840312156118d657600080fd5b8135610c54816118ae565b60005b838110156118fc5781810151838201526020016118e4565b83811115610cab5750506000910152565b600081518084526119258160208601602086016118e1565b601f01601f19169290920160200192915050565b602081526000610c54602083018461190d565b60006020828403121561195e57600080fd5b5035919050565b80356001600160a01b038116811461197c57600080fd5b919050565b6000806040838503121561199457600080fd5b61199d83611965565b946020939093013593505050565b602080825282518282018190526000919060409081850190868401855b82811015611a1a57815180518552868101516001600160a01b03908116888701528682015116868601526060808201519086015260809081015115159085015260a090930192908501906001016119c8565b5091979650505050505050565b600080600060608486031215611a3c57600080fd5b611a4584611965565b9250611a5360208501611965565b9150604084013590509250925092565b600060208284031215611a7557600080fd5b610c5482611965565b634e487b7160e01b600052604160045260246000fd5b600067ffffffffffffffff80841115611aaf57611aaf611a7e565b604051601f8501601f19908116603f01168101908282118183101715611ad757611ad7611a7e565b81604052809350858152868686011115611af057600080fd5b858560208301376000602087830101525050509392505050565b60008060408385031215611b1d57600080fd5b823567ffffffffffffffff811115611b3457600080fd5b8301601f81018513611b4557600080fd5b611b5485823560208401611a94565b95602094909401359450505050565b60008060408385031215611b7657600080fd5b611b7f83611965565b915060208301358015158114611b9457600080fd5b809150509250929050565b60008060008060808587031215611bb557600080fd5b611bbe85611965565b9350611bcc60208601611965565b925060408501359150606085013567ffffffffffffffff811115611bef57600080fd5b8501601f81018713611c0057600080fd5b611c0f87823560208401611a94565b91505092959194509250565b60008060408385031215611c2e57600080fd5b611c3783611965565b9150611c4560208401611965565b90509250929050565b600181811c90821680611c6257607f821691505b60208210811415611c8357634e487b7160e01b600052602260045260246000fd5b50919050565b634e487b7160e01b600052601160045260246000fd5b600082821015611cb157611cb1611c89565b500390565b60008219821115611cc957611cc9611c89565b500190565b634e487b7160e01b600052603260045260246000fd5b6000600019821415611cf857611cf8611c89565b5060010190565b6020808252602e908201527f4552433732313a2063616c6c6572206973206e6f7420746f6b656e206f776e6560408201526d1c881b9bdc88185c1c1c9bdd995960921b606082015260800190565b60008351611d5f8184602088016118e1565b835190830190611d738183602088016118e1565b01949350505050565b60208082526032908201527f4552433732313a207472616e7366657220746f206e6f6e20455243373231526560408201527131b2b4bb32b91034b6b83632b6b2b73a32b960711b606082015260800190565b6001600160a01b0385811682528416602082015260408101839052608060608201819052600090611e019083018461190d565b9695505050505050565b600060208284031215611e1d57600080fd5b8151610c54816118ae565b634e487b7160e01b600052601260045260246000fd5b600082611e4d57611e4d611e28565b500490565b600082611e6157611e61611e28565b50069056fea26469706673582212208c1520a9e073368eaa228906add2222e57dfbdf9090ad7bb3cf630bb64071dbc64736f6c63430008090033",
  "linkReferences": {},
  "deployedLinkReferences": {}
}